{
  "_format": "hh-sol-artifact-1",
  "contractName": "TaoHTLC",
  "sourceName": "contracts/TaoHTLC.sol",
  "abi": [
    {
      "anonymous": false,
      "inputs": [
        {
          "indexed": true,
          "internalType": "bytes32",
          "name": "swapId",
          "type": "bytes32"
        },
        {
          "indexed": false,
          "internalType": "bytes",
          "name": "preimage",
          "type": "bytes"
        }
      ],
      "name": "Claimed",
      "type": "event"
    },
    {
      "anonymous": false,
      "inputs": [
        {
          "indexed": true,
          "internalType": "bytes32",
          "name": "swapId",
          "type": "bytes32"
        },
        {
          "indexed": false,
          "internalType": "address",
          "name": "sender",
          "type": "address"
        },
        {
          "indexed": false,
          "internalType": "address",
          "name": "receiver",
          "type": "address"
        },
        {
          "indexed": false,
          "internalType": "uint256",
          "name": "amount",
          "type": "uint256"
        },
        {
          "indexed": false,
          "internalType": "uint256",
          "name": "refundAfter",
          "type": "uint256"
        },
        {
          "indexed": false,
          "internalType": "bytes32",
          "name": "hashlock",
          "type": "bytes32"
        }
      ],
      "name": "Locked",
      "type": "event"
    },
    {
      "anonymous": false,
      "inputs": [
        {
          "indexed": true,
          "internalType": "bytes32",
          "name": "swapId",
          "type": "bytes32"
        }
      ],
      "name": "Refunded",
      "type": "event"
    },
    {
      "inputs": [
        {
          "internalType": "bytes32",
          "name": "swapId",
          "type": "bytes32"
        },
        {
          "internalType": "bytes",
          "name": "preimage",
          "type": "bytes"
        }
      ],
      "name": "claim",
      "outputs": [],
      "stateMutability": "nonpayable",
      "type": "function"
    },
    {
      "inputs": [
        {
          "internalType": "address",
          "name": "receiver",
          "type": "address"
        },
        {
          "internalType": "bytes32",
          "name": "hashlock",
          "type": "bytes32"
        },
        {
          "internalType": "uint256",
          "name": "refundAfter",
          "type": "uint256"
        },
        {
          "internalType": "bytes32",
          "name": "clientSalt",
          "type": "bytes32"
        }
      ],
      "name": "lock",
      "outputs": [
        {
          "internalType": "bytes32",
          "name": "swapId",
          "type": "bytes32"
        }
      ],
      "stateMutability": "payable",
      "type": "function"
    },
    {
      "inputs": [
        {
          "internalType": "bytes32",
          "name": "swapId",
          "type": "bytes32"
        }
      ],
      "name": "refund",
      "outputs": [],
      "stateMutability": "nonpayable",
      "type": "function"
    },
    {
      "inputs": [
        {
          "internalType": "bytes32",
          "name": "",
          "type": "bytes32"
        }
      ],
      "name": "swaps",
      "outputs": [
        {
          "internalType": "address",
          "name": "sender",
          "type": "address"
        },
        {
          "internalType": "address",
          "name": "receiver",
          "type": "address"
        },
        {
          "internalType": "uint256",
          "name": "amount",
          "type": "uint256"
        },
        {
          "internalType": "uint256",
          "name": "refundAfter",
          "type": "uint256"
        },
        {
          "internalType": "bytes32",
          "name": "hashlock",
          "type": "bytes32"
        },
        {
          "internalType": "bool",
          "name": "claimed",
          "type": "bool"
        },
        {
          "internalType": "bool",
          "name": "refunded",
          "type": "bool"
        }
      ],
      "stateMutability": "view",
      "type": "function"
    }
  ],
  "bytecode": "0x608060405234801561001057600080fd5b50611562806100206000396000f3fe60806040526004361061003f5760003560e01c80637249fbb614610044578063850a4d011461006d578063eb84e7f21461009d578063f0331024146100e0575b600080fd5b34801561005057600080fd5b5061006b60048036038101906100669190610c28565b610109565b005b61008760048036038101906100829190610ce9565b61041b565b6040516100949190610d5f565b60405180910390f35b3480156100a957600080fd5b506100c460048036038101906100bf9190610c28565b610795565b6040516100d79796959493929190610db3565b60405180910390f35b3480156100ec57600080fd5b5061010760048036038101906101029190610e87565b610831565b005b60008060008381526020019081526020016000209050600073ffffffffffffffffffffffffffffffffffffffff168160000160009054906101000a900473ffffffffffffffffffffffffffffffffffffffff1673ffffffffffffffffffffffffffffffffffffffff16036101b2576040517f08c379a00000000000000000000000000000000000000000000000000000000081526004016101a990610f44565b60405180910390fd5b8060050160009054906101000a900460ff161580156101e057508060050160019054906101000a900460ff16155b61021f576040517f08c379a000000000000000000000000000000000000000000000000000000000815260040161021690610fb0565b60405180910390fd5b8060030154421015610266576040517f08c379a000000000000000000000000000000000000000000000000000000000815260040161025d9061101c565b60405180910390fd5b60008160020154905060008260000160009054906101000a900473ffffffffffffffffffffffffffffffffffffffff169050600080858152602001908152602001600020600080820160006101000a81549073ffffffffffffffffffffffffffffffffffffffff02191690556001820160006101000a81549073ffffffffffffffffffffffffffffffffffffffff02191690556002820160009055600382016000905560048201600090556005820160006101000a81549060ff02191690556005820160016101000a81549060ff0219169055505060008173ffffffffffffffffffffffffffffffffffffffff16836040516103619061106d565b60006040518083038185875af1925050503d806000811461039e576040519150601f19603f3d011682016040523d82523d6000602084013e6103a3565b606091505b50509050806103e7576040517f08c379a00000000000000000000000000000000000000000000000000000000081526004016103de906110ce565b60405180910390fd5b847ffe509803c09416b28ff3d8f690c8b0c61462a892c46d5430c8fb20abe472daf060405160405180910390a25050505050565b600080341161045f576040517f08c379a00000000000000000000000000000000000000000000000000000000081526004016104569061113a565b60405180910390fd5b600073ffffffffffffffffffffffffffffffffffffffff168573ffffffffffffffffffffffffffffffffffffffff16036104ce576040517f08c379a00000000000000000000000000000000000000000000000000000000081526004016104c5906111a6565b60405180910390fd5b428311610510576040517f08c379a000000000000000000000000000000000000000000000000000000000815260040161050790611212565b60405180910390fd5b33853485878660405160200161052b96959493929190611232565b604051602081830303815290604052805190602001209050600073ffffffffffffffffffffffffffffffffffffffff1660008083815260200190815260200160002060000160009054906101000a900473ffffffffffffffffffffffffffffffffffffffff1673ffffffffffffffffffffffffffffffffffffffff16146105e7576040517f08c379a00000000000000000000000000000000000000000000000000000000081526004016105de906112df565b60405180910390fd5b6040518060e001604052803373ffffffffffffffffffffffffffffffffffffffff1681526020018673ffffffffffffffffffffffffffffffffffffffff1681526020013481526020018481526020018581526020016000151581526020016000151581525060008083815260200190815260200160002060008201518160000160006101000a81548173ffffffffffffffffffffffffffffffffffffffff021916908373ffffffffffffffffffffffffffffffffffffffff16021790555060208201518160010160006101000a81548173ffffffffffffffffffffffffffffffffffffffff021916908373ffffffffffffffffffffffffffffffffffffffff16021790555060408201518160020155606082015181600301556080820151816004015560a08201518160050160006101000a81548160ff02191690831515021790555060c08201518160050160016101000a81548160ff021916908315150217905550905050807f5cd86f3993e8c1c0a6ba09112cf89597e53b4ffe69c7eb8f582cf9aef977f16633873487896040516107859594939291906112ff565b60405180910390a2949350505050565b60006020528060005260406000206000915090508060000160009054906101000a900473ffffffffffffffffffffffffffffffffffffffff16908060010160009054906101000a900473ffffffffffffffffffffffffffffffffffffffff16908060020154908060030154908060040154908060050160009054906101000a900460ff16908060050160019054906101000a900460ff16905087565b60008060008581526020019081526020016000209050600073ffffffffffffffffffffffffffffffffffffffff168160000160009054906101000a900473ffffffffffffffffffffffffffffffffffffffff1673ffffffffffffffffffffffffffffffffffffffff16036108da576040517f08c379a00000000000000000000000000000000000000000000000000000000081526004016108d190610f44565b60405180910390fd5b8060050160009054906101000a900460ff1615801561090857508060050160019054906101000a900460ff16155b610947576040517f08c379a000000000000000000000000000000000000000000000000000000000815260040161093e90610fb0565b60405180910390fd5b6020838390501461098d576040517f08c379a00000000000000000000000000000000000000000000000000000000081526004016109849061139e565b60405180910390fd5b8060040154600284846040516109a49291906113f2565b602060405180830381855afa1580156109c1573d6000803e3d6000fd5b5050506040513d601f19601f820116820180604052508101906109e49190611420565b14610a24576040517f08c379a0000000000000000000000000000000000000000000000000000000008152600401610a1b90611499565b60405180910390fd5b60008160020154905060008260010160009054906101000a900473ffffffffffffffffffffffffffffffffffffffff169050600080878152602001908152602001600020600080820160006101000a81549073ffffffffffffffffffffffffffffffffffffffff02191690556001820160006101000a81549073ffffffffffffffffffffffffffffffffffffffff02191690556002820160009055600382016000905560048201600090556005820160006101000a81549060ff02191690556005820160016101000a81549060ff0219169055505060008173ffffffffffffffffffffffffffffffffffffffff1683604051610b1f9061106d565b60006040518083038185875af1925050503d8060008114610b5c576040519150601f19603f3d011682016040523d82523d6000602084013e610b61565b606091505b5050905080610ba5576040517f08c379a0000000000000000000000000000000000000000000000000000000008152600401610b9c906110ce565b60405180910390fd5b867f54e9dcf96aeed1fa6849e3f39d94c3115fa88d93c20d7f7f44afed0428596e2f8787604051610bd7929190611508565b60405180910390a250505050505050565b600080fd5b600080fd5b6000819050919050565b610c0581610bf2565b8114610c1057600080fd5b50565b600081359050610c2281610bfc565b92915050565b600060208284031215610c3e57610c3d610be8565b5b6000610c4c84828501610c13565b91505092915050565b600073ffffffffffffffffffffffffffffffffffffffff82169050919050565b6000610c8082610c55565b9050919050565b610c9081610c75565b8114610c9b57600080fd5b50565b600081359050610cad81610c87565b92915050565b6000819050919050565b610cc681610cb3565b8114610cd157600080fd5b50565b600081359050610ce381610cbd565b92915050565b60008060008060808587031215610d0357610d02610be8565b5b6000610d1187828801610c9e565b9450506020610d2287828801610c13565b9350506040610d3387828801610cd4565b9250506060610d4487828801610c13565b91505092959194509250565b610d5981610bf2565b82525050565b6000602082019050610d746000830184610d50565b92915050565b610d8381610c75565b82525050565b610d9281610cb3565b82525050565b60008115159050919050565b610dad81610d98565b82525050565b600060e082019050610dc8600083018a610d7a565b610dd56020830189610d7a565b610de26040830188610d89565b610def6060830187610d89565b610dfc6080830186610d50565b610e0960a0830185610da4565b610e1660c0830184610da4565b98975050505050505050565b600080fd5b600080fd5b600080fd5b60008083601f840112610e4757610e46610e22565b5b8235905067ffffffffffffffff811115610e6457610e63610e27565b5b602083019150836001820283011115610e8057610e7f610e2c565b5b9250929050565b600080600060408486031215610ea057610e9f610be8565b5b6000610eae86828701610c13565b935050602084013567ffffffffffffffff811115610ecf57610ece610bed565b5b610edb86828701610e31565b92509250509250925092565b600082825260208201905092915050565b7f73776170206e6f7420666f756e64000000000000000000000000000000000000600082015250565b6000610f2e600e83610ee7565b9150610f3982610ef8565b602082019050919050565b60006020820190508181036000830152610f5d81610f21565b9050919050565b7f7377617020636c6f736564000000000000000000000000000000000000000000600082015250565b6000610f9a600b83610ee7565b9150610fa582610f64565b602082019050919050565b60006020820190508181036000830152610fc981610f8d565b9050919050565b7f746f6f206561726c790000000000000000000000000000000000000000000000600082015250565b6000611006600983610ee7565b915061101182610fd0565b602082019050919050565b6000602082019050818103600083015261103581610ff9565b9050919050565b600081905092915050565b50565b600061105760008361103c565b915061106282611047565b600082019050919050565b60006110788261104a565b9150819050919050565b7f7472616e73666572206661696c65640000000000000000000000000000000000600082015250565b60006110b8600f83610ee7565b91506110c382611082565b602082019050919050565b600060208201905081810360008301526110e7816110ab565b9050919050565b7f616d6f756e743d30000000000000000000000000000000000000000000000000600082015250565b6000611124600883610ee7565b915061112f826110ee565b602082019050919050565b6000602082019050818103600083015261115381611117565b9050919050565b7f72656365697665723d3000000000000000000000000000000000000000000000600082015250565b6000611190600a83610ee7565b915061119b8261115a565b602082019050919050565b600060208201905081810360008301526111bf81611183565b9050919050565b7f726566756e644166746572203c3d206e6f770000000000000000000000000000600082015250565b60006111fc601283610ee7565b9150611207826111c6565b602082019050919050565b6000602082019050818103600083015261122b816111ef565b9050919050565b600060c0820190506112476000830189610d7a565b6112546020830188610d7a565b6112616040830187610d89565b61126e6060830186610d89565b61127b6080830185610d50565b61128860a0830184610d50565b979650505050505050565b7f7377617020657869737473000000000000000000000000000000000000000000600082015250565b60006112c9600b83610ee7565b91506112d482611293565b602082019050919050565b600060208201905081810360008301526112f8816112bc565b9050919050565b600060a0820190506113146000830188610d7a565b6113216020830187610d7a565b61132e6040830186610d89565b61133b6060830185610d89565b6113486080830184610d50565b9695505050505050565b7f62616420707265696d616765206c656e67746800000000000000000000000000600082015250565b6000611388601383610ee7565b915061139382611352565b602082019050919050565b600060208201905081810360008301526113b78161137b565b9050919050565b82818337600083830152505050565b60006113d9838561103c565b93506113e68385846113be565b82840190509392505050565b60006113ff8284866113cd565b91508190509392505050565b60008151905061141a81610bfc565b92915050565b60006020828403121561143657611435610be8565b5b60006114448482850161140b565b91505092915050565b7f62616420707265696d6167650000000000000000000000000000000000000000600082015250565b6000611483600c83610ee7565b915061148e8261144d565b602082019050919050565b600060208201905081810360008301526114b281611476565b9050919050565b600082825260208201905092915050565b6000601f19601f8301169050919050565b60006114e783856114b9565b93506114f48385846113be565b6114fd836114ca565b840190509392505050565b600060208201905081810360008301526115238184866114db565b9050939250505056fea26469706673582212203384e1b75c12752720dab6c52d4e9ec68d387d338e4184b5fafff344699cbca164736f6c63430008140033",
  "linkReferences": {},
  "deployedLinkReferences": {}
}